:100000000C9435000C945D000C945D000C945D0024
:100010000C945D000C945D000C9428110C945D0010
:100020000C945D000C945D000C945D000C945D00DC
:100030000C945D000C945D000C945D000C945D00CC
:100040000C9492020C945D000C9402030C94DC025C
:100050000C945D000C945D000C945D000C945D00AC
:100060000C945D000C945D00291211241FBECFEF8B
:10007000D8E0DEBFCDBF11E0A0E0B1E0EAE6F7E2F4
:1000800002C005900D92AE36B107D9F722E0AEE678
:10009000B1E001C01D92AB3BB207E1F710E0C5E350
:1000A000D0E004C02197FE010E949D13C433D10704
:1000B000C9F70E942B110C94B3130C940000AF925B
:1000C000BF92CF92DF92EF92FF920F931F93CF9345
:1000D000DF936C017B018B01040F151FEB015E01A7
:1000E000AE18BF08C017D10759F06991D601ED913C
:1000F000FC910190F081E02DC6010995892B79F7DB
:10010000C501DF91CF911F910F91FF90EF90DF908C
:10011000CF90BF90AF900895FC01538D448D252F53
:1001200030E0842F90E0821B930B541710F0CF9691
:10013000089501970895FC01918D828D981761F0C3
:10014000A28DAE0FBF2FB11D5D968C91928D9F5FDA
:100150009F73928F90E008958FEF9FEF0895FC01B9
:10016000918D828D981731F0828DE80FF11D858D6C
:1001700090E008958FEF9FEF0895FC01918D228DFF
:10018000892F90E0805C9F4F821B91098F73992784
:10019000089589EC91E00E94BD0021E0892B09F4CB
:1001A00020E0822F08950E94C90081110C94000064
:1001B000089580E090E0892B11F00C94D30008950D
:1001C000FC01A48DA80FB92FB11DA35ABF4F2C91CC
:1001D000848D90E001968F739927848FA689B789C3
:1001E0002C93A089B1898C91837080648C93938DBA
:1001F000848D981306C00288F389E02D80818F7D5D
:1002000080830895EF92FF920F931F93CF93DF9314
:10021000EC0181E0888F9B8D8C8D98131AC0E88942
:10022000F989808185FF15C09FB7F894EE89FF8911
:100230006083E889F98980818370806480839FBFAF
:1002400081E090E0DF91CF911F910F91FF90EF90AF
:100250000895F62E0B8D10E00F5F1F4F0F731127BF
:10026000E02E8C8D8E110CC00FB607FCFACFE889FA
:10027000F989808185FFF5CFCE010E94E000F1CFA2
:10028000EB8DEC0FFD2FF11DE35AFF4FF0829FB76E
:10029000F8940B8FEA89FB8980818062CFCFCF935E
:1002A000DF93EC01888D8823B9F0AA89BB89E8899E
:1002B000F9898C9185FD03C0808186FD0DC00FB644
:1002C00007FCF7CF8C9185FFF2CF808185FFEDCFC2
:1002D000CE010E94E000E9CFDF91CF9108950E9406
:1002E000D6050E942E0460E081E090E00E940505A2
:1002F0000E9494068111F3CF0E94D605F0CFEF92B1
:10030000FF920F93CF93DF93CDB7DEB764970FB60D
:10031000F894DEBF0FBECDBF0E94DA0F90938F011D
:1003200080938E010E94DA0F90938D0180938C014F
:100330000E94DA0F20918C0130918D013C872B8730
:100340002FEF33E03E872D87188A1F861A8A198A75
:100350001C8A1B8A4AE0FE013B96A2E8B1E00190AC
:100360000D924A95E1F79A8389833C832B831E8201
:100370001D8218861F821A8619868AE0FE01319630
:10038000A8E7B1E001900D928A95E1F7E9ECF1E080
:10039000A089B18982E08C93A485B5851C92A6853D
:1003A000B78587E68C93108EA489B58986E08C93F7
:1003B000A289B3898C9180618C93A289B3898C9135
:1003C00088608C93A289B3898C9180688C93028811
:1003D000F389E02D80818F7D808386E7E82E81E0A0
:1003E000F82E01E030E020E040E850E069E171E003
:1003F0008FE691E00E94F90F94E7E92E91E0F92E43
:1004000022E831E040E850E060E371E084E292E00D
:100410000E94F90F22E7E22E21E0F22E28E731E0D8
:1004200040E850E066E471E084E292E00E94F90F57
:1004300064960FB6F894DEBF0FBECDBFDF91CF91AB
:100440000F91FF90EF900895CF93DF93CDB7DEB774
:10045000A1970FB6F894DEBF0FBECDBF7C018AE036
:10046000882E912CA12CB12CF701808191810097CD
:1004700069F00E94FB09882349F0F701C280D3800C
:1004800070E060E0808191810E945C0880918E0123
:1004900090918F010097C1F10E94FB098823A1F17F
:1004A000960150E040E019A28E010F5D1F4FCA0176
:1004B000B901A50194010E947B13605DF80162936C
:1004C0008F01211531054105510589F7309761F0FC
:1004D00001900020E9F73197AF01401B510BB801A3
:1004E00089EC91E00E945F0042E050E06DE571E030
:1004F00089EC91E00E945F0070E060E080918E01E5
:1005000090918F010E945C080E942E0460E08EE3AF
:1005100090E00E9405050E9494068111A5CF0E94DB
:10052000D605A2CF1F920F920FB60F9211242F93D0
:100530003F938F939F93AF93BF9380918702909146
:100540008802A0918902B0918A023091860223E04C
:10055000230F2D3758F50196A11DB11D209386025A
:100560008093870290938802A0938902B0938A02B5
:100570008091820290918302A0918402B0918502C1
:100580000196A11DB11D8093820290938302A093D6
:100590008402B0938502BF91AF919F918F913F915B
:1005A0002F910F900FBE0F901F90189526E8230FE4
:1005B0000296A11DB11DD2CF1F920F920FB60F92BE
:1005C00011242F933F934F935F936F937F938F9358
:1005D0009F93AF93BF93EF93FF9389EC91E00E94B9
:1005E000E000FF91EF91BF91AF919F918F917F912B
:1005F0006F915F914F913F912F910F900FBE0F9090
:100600001F9018951F920F920FB60F9211242F93DF
:100610008F939F93EF93FF93E091D901F091DA01CB
:100620008081E091DF01F091E00182FD1BC09081AB
:100630008091E2018F5F8F732091E301821741F077
:10064000E091E201F0E0E753FE4F958F8093E201E5
:10065000FF91EF919F918F912F910F900FBE0F906F
:100660001F9018958081F4CFE091C301F091C401EF
:100670008081811107C08FEF9FEF90937F0280935D
:100680007E020895E091C301F091C4010580F681D6
:10069000E02D80819181F1CFFC01DB010FB6F89450
:1006A0000F9240918F02509190022D913C911197A1
:1006B0002F3F320711F18181928160919102708107
:1006C000761749F04817590730F01D921C9281E0C7
:1006D0000F900FBE0895481B590B42175307A8F7F8
:1006E000241B350B2D933C93809191028083809144
:1006F0008F02909190029283818380E0E9CFCF9323
:10070000DF93DC011596ED91FC910680F781E02DD9
:10071000A489B5898685978520893189EC013D8337
:100720002C83C089D1899B838A83CF010C96119633
:100730002D913C9112972817390721F41296DC93DA
:10074000CE931197158A148A2C9121502C932091C5
:100750008B02211157C0A285B385848195812681A2
:100760003781EC013D832C83C681D7819B838A83AB
:10077000CF01029611962D913C91129728173907B7
:1007800021F41296DC93CE931197138612862C9146
:1007900021502C93C6892091B6022C1710F4C093D7
:1007A000B60229E02C9FE0011124CE56DD4F0980CE
:1007B000DA81C02DD583C4834C815D815783468304
:1007C000AC81BD8113969C938E9312979D838C83ED
:1007D000A689A29FD0011124AE56BD4FB387A28730
:1007E0008C918F5F8C93A0916E01B0916F0196896F
:1007F00056968C91891730F581E08093A501DF91A1
:10080000CF910895A091A701B091A801B787A687BD
:1008100014962D913C911597318B208B1496CD9188
:10082000DC9115979B838A8315969C938E931497DE
:1008300086EA91E0958B848B8091A6018F5F8093EF
:10084000A601D1CF80E0DBCF0FB6F8940F92809154
:100850008F02909190020F900FBE089580918B02AD
:100860008F5F80938B0208950FB6F8940F92FC016E
:10087000928D0F900FBE81E0911180E00895EF926C
:10088000FF920F931F93CF93DF93EC010FB6F89471
:100890000F921E8D7C0181E1E80EF11C01E0111622
:1008A000D4F08FEF8E8F0F900FBE0FB6F8940F928B
:1008B0001D8D7E0188E0E80EF11C01E01116B4F0F8
:1008C0008FEF8D8F0F900FBEDF91CF911F910F9102
:1008D000FF90EF9008958989882319F3C7010E943A
:1008E0007F0381110093A5011150D9CF88858823FA
:1008F00039F3C7010E947F0381110093A5011150B4
:10090000DDCFCF93DF93FC01A085B18582819381F8
:1009100024813581EC013D832C83C481D5819B8367
:100920008A8311968D919C9112978E179F0721F4BF
:100930001296DC93CE931197118610868C9181507C
:100940008C938C91DF91CF9108950F931F93CF9348
:10095000DF938C01FB0180819181D80113968F3F39
:100960009807F1F4E801AF81B88512968D919C91BA
:10097000139793838283EC01FD83EC83B583A48377
:100980001396FC93EE93129711870087F8018081EC
:100990008F5F8083DF91CF911F910F910895D901CF
:1009A00012962D913C911397E90148815981841742
:1009B0009507A8F7DACFFC0173836283918780875C
:1009C0004617570790F0421B530B848595854817AF
:1009D0005907C8F4BF016E5F7F4F80916602909106
:1009E00067020E94A50480E008954217530718F497
:1009F0006217730740F4BF016E5F7F4F80916802FA
:100A000090916902EECF81E00895FF920F931F93BA
:100A1000CF93DF93EC01F62E00918F02109190029C
:100A200080916E0190916F0102960E948104CF3FE8
:100A3000DC07E9F5FF20D9F1E091BB01F091BC01A1
:100A4000A0916E01B0916F011596FC93EE931497EF
:100A5000A0916E01B0916F018481958117969C934E
:100A60008E93169780916E0190916F01A481B5814C
:100A7000029613969C938E93129780916E0190919B
:100A80006F01029695838483E0916E01F0916F016E
:100A90008AEB91E0938782878091BA018F5F809380
:100AA000BA01DF91CF911F910F91FF900895C00F70
:100AB000D11FE0916E01F0916F01D383C2836091E9
:100AC0006E0170916F01C017D10768F48091C50164
:100AD0009091C6016E5F7F4FDF91CF911F910F9173
:100AE000FF900C94A5048091C3019091C4016E5FA6
:100AF0007F4F0E94A50480917E0290917F02C817CB
:100B0000D90778F6D0937F02C0937E02CACFCF93E5
:100B1000DF93EB0160916E0170916F01645F7F4F15
:100B20000E94A50461E0CE01DF91CF910C940505F0
:100B3000FC010396928381832FEF3FEF348323835D
:100B4000968385839087878310820895CF93DF9360
:100B5000EC010FB6F8940F92888199812B8D4C8D02
:100B6000BC01249F600D711D11247D836C831A8E3E
:100B70009B838A832150330B429FB001439F700DAA
:100B80001124860F971F9F838E838FEF8D8F8E8FFB
:100B9000CE0108960E949805CE0141960E949805C4
:100BA0000F900FBE81E0DF91CF9108950F920FB6A5
:100BB000F8940F921F9211242F923F924F925F92BE
:100BC0006F927F928F929F92AF92BF92CF92DF925D
:100BD000EF92FF920F931F932F933F934F935F9347
:100BE0006F937F938F939F93AF93BF93CF93DF9335
:100BF000EF93FF93A0916E01B0916F010DB60D922E
:100C00000EB60D9280918B02882321F081E08093B3
:100C1000A5015FC01092A501A0916E01B0916F0176
:100C2000E0916E01F0916F012D913C918789908D3B
:100C300082179307A8F080916E0190916F018091C7
:100C40006E0190916F01259A2D9A2FEF87EA91E618
:100C5000215080409040E1F700C000001D9AF5CF80
:100C60002091B60289E001C02150422F50E0849FBC
:100C7000F001859FF00D1124EE56FD4F90819923D0
:100C800099F3A181B28112960D90BC91A02DB283EF
:100C9000A183289FC00111248B569D4FA817B90727
:100CA00029F412968D919C919283818389E0849F8F
:100CB000F001859FF00D1124EE56FD4F0180F28169
:100CC000E02D8681978190936F0180936E01209330
:100CD000B602A0916E01B0916F01CD91CDBFDD91B3
:100CE000DEBFFF91EF91DF91CF91BF91AF919F91C7
:100CF0008F917F916F915F914F913F912F911F91B4
:100D00000F91FF90EF90DF90CF90BF90AF909F90AA
:100D10008F907F906F905F904F903F902F901F909B
:100D20000F900FBE0F9008958F929F92BF92CF9217
:100D3000DF92EF92FF920F931F93CF93DF930FB643
:100D4000F8940F9280918B02815080938B02809156
:100D50008B02882379F080E00F900FBEDF91CF9156
:100D60001F910F91FF90EF90DF90CF90BF909F90D9
:100D70008F9008958091B001882369F3E090AB01D2
:100D8000F090AC01F0E0E0E039E041E08091A601B4
:100D900081115EC0EF2B11F00E943403E090A3019B
:100DA000F090A401E114F10409F47DC189E0D82E8A
:100DB000CC24C3940FEF1FEF80918B02811161C18E
:100DC000C0918F02D09190024E018FEF881A980A3D
:100DD0009092900280928F0281149104B9F48091D4
:100DE000C3019091C4012091C5013091C601309397
:100DF000C4012093C3019093C6018093C5018091E3
:100E000091028F5F809391020E94340380917E0251
:100E100090917F02B12C8816990608F026C1E091C6
:100E20006E01F0916F01E689DE9EF0011124EE560D
:100E3000FD4F8081823010F0BB24B3948091A501D6
:100E4000811103C0BB2009F425C1C092A50122C1B4
:100E5000D7011696ED91FC91A489B58966857785B1
:100E600080899189EB019D838C8380899189EC0134
:100E70007B836A83BF01645F7F4F11960D911C9144
:100E800012970617170721F412969C938E931197C9
:100E9000158A148A8C9181508C93A285B3858481A4
:100EA000958166817781EC017D836C836681778192
:100EB000EB019B838A83CF01029611960D911C91C1
:100EC00012970817190721F412967C936E931197C5
:100ED000138612862C9121502C93A6892091B6025C
:100EE0002A1710F4A093B6023A9FD0011124AE56EF
:100EF000BD4F11960D90BC91A02DB583A48314967F
:100F00006D917C9115977783668314966D917C9192
:100F10001597EB019B838A8315969C938E93149768
:100F20009689939FD0011124AE56BD4FB387A287F7
:100F30008C918F5F8C93A0916E01B0916F0156964A
:100F40008C91981708F422CF4093A5011FCFE09110
:100F5000C301F091C4010580F681E02D0680F78180
:100F6000E02D828193818816990628F490937F0260
:100F700080937E0254CFC285D3858481958126815A
:100F80003781DC0115963C932E9314972681378187
:100F9000D90113969C938E931297CF0102964981A3
:100FA0005A814817590711F43A8329831386128608
:100FB000288121502883A489B5891097F9F02685C6
:100FC000378540895189E9015D834C834089518986
:100FD000EA013B832A8311966D917C9112979F01C0
:100FE000245F3F4F6217730721F412965C934E9370
:100FF0001197158A148A2C9121502C93A68920913F
:10100000B6022A1710F4A093B602DA9ED00111247A
:10101000AE56BD4F11960D90BC91A02DB583A48303
:1010200014962D913C9115973783268314962D9114
:101030003C911597E9019B838A8315969C938E9327
:10104000149796899D9DD0011124AE56BD4FB3874C
:10105000A2878C918F5F8C93E0916E01F0916F016C
:101060008689981710F0BB24B394E091C301F091E6
:10107000C401808181116BCF10937F0200937E02A7
:10108000CECE8091A3019091A40101969093A401EA
:101090008093A301D1E0ED1AF10809F08DCE1092F2
:1010A000A4011092A3018091A501882309F453CED5
:1010B0000E94D60581E050CEAF92BF92DF92EF92B0
:1010C000FF920F931F93CF93DF9300D000D01F9216
:1010D000CDB7DEB78C017B011D821C8280E05801F8
:1010E00098E0A90EB11C0FB6F8940F92D8015A9649
:1010F0002C915A975B969C915B97291708F0AFC08B
:101100005A96DC905A975C964C915C9741118CC032
:101110008D919C91892B11F080E00AC0F801E48048
:10112000F580E114F10431F580E0F80115821482B4
:10113000D394D8015A96DC925A9751969C91992350
:1011400021F0C80141960E947F0381110E94D605BB
:101150000F900FBE81E00F900F900F900F900F90A7
:10116000DF91CF911F910F91FF90EF90DF90BF9093
:10117000AF900895D70192968C9192978150929654
:101180008C93929756962C91569791969C912917ED
:1011900059F28111C9CF5701B2E0AB0EB11CC501A4
:1011A0000E948104F70181A1868B482F50E024E042
:1011B00030E0241B350B358724879091B6029817B1
:1011C00010F48093B60289E0849FD001859FB00D12
:1011D0001124AE56BD4F11960D90BC91A02DF70174
:1011E000B583A48314962D913C911597378326835C
:1011F0001496ED91FC911597B382A2821596BC923C
:10120000AE921497D7015696EC915697E89FF0014D
:101210001124EE56FD4F1B96FC93EE931A97808196
:101220008F5F808381E081CF50E0B70112968D916E
:101230009C910E94A313F801848D22813381820F37
:10124000932F911D93838283248135818217930785
:1012500008F462CF80819181938382835DCF2C815A
:101260003D81232B21F40F900FBE80E074CF8111BC
:1012700009C080919102898380918F0290919002A0
:101280009B838A830F900FBE0E942E040FB6F894A2
:101290000F92F801858D8F3F09F4158ED8015E9667
:1012A0008C915E978F3F11F45E961C920F900FBE4B
:1012B000BE016C5F7F4FCE0101960E944C038111ED
:1012C00020C00FB6F8940F92F801928D838D0F9085
:1012D0000FBE981310C06C817D81C5010E948705E7
:1012E000C8010E943F040E949406811102C00E941E
:1012F000D60581E0F8CEC8010E943F040E94940602
:10130000F8CFC8010E943F040E949406AECFCF934D
:10131000DF9300D000D01F92CDB7DEB79C01809143
:101320008D0290918E020097B9F019827B836A83B7
:101330003D832C8320918C02BE016F5F7F4F211172
:1013400020918B020E945C080F900F900F900F90DD
:101350000F90DF91CF91089580E0F6CFEF92FF924A
:101360000F931F93CF93DF93E0916802F09169028E
:101370008081811113C080916602909167029093E1
:10138000690280936802F0936702E0936602DF913E
:10139000CF911F910F91FF90EF9008950580F681F6
:1013A000E02D00811181C681D7817E0182E0E80EA7
:1013B000F11CC7010E948104E889F989CE010995D1
:1013C0008A8982FFD1CF8C859D85800F911F081758
:1013D000190760F49B838A83D987C887B7018091F6
:1013E0006802909169020E94A504BECFB801CE01A7
:1013F0000E948709B9CF7F928F929F92AF92BF923E
:10140000CF92DF92EF92FF920F931F93CF93DF93D0
:1014100000D000D01F92CDB7DEB78C011D821C8298
:10142000D12C90E0580121E1A20EB11C89E0782E68
:1014300024E0822E912C0FB6F8940F92D8015A9680
:101440008C915A97882309F440C081505A968C9306
:101450005A978D919C91892BA1F480916E01909166
:101460006F01892B39F0E0916E01F0916F0182A13B
:101470008F5F82A380916E0190916F01F801958337
:101480008483D80118968C91882339F0C801089676
:101490000E947F0381110E94D6050F900FBEDD24AC
:1014A000D3948D2D0F900F900F900F900F90DF9190
:1014B000CF911F910F91FF90EF90DF90CF90BF9051
:1014C000AF909F908F907F9008952C813D81232B2A
:1014D00021F40F900FBED12CE4CF911109C080915F
:1014E0009102898380918F02909190029B838A83DD
:1014F0000F900FBE0E942E040FB6F8940F92F801C1
:10150000858D8F3F09F4158ED8015E968C915E977C
:101510008F3F11F45E961C920F900FBEBE016C5F60
:101520007F4FCE0101960E944C038111AEC0C801CD
:101530000E943404882309F4A2C0F80180819181BB
:10154000892B09F076C00FB6F8940F92E480F580ED
:10155000E114F10409F491C0F7018689E0916E016C
:10156000F0916F019689891708F07BC0D7011C960E
:101570002D913C911D9737FD0CC0E0916E01F091CB
:101580006F0196899401291B31091D963C932E9376
:101590001C97879DC00111248E569D4FF70122850F
:1015A00033852817390709F054C06701F2E0CF0EE0
:1015B000D11CC6010E948104E0916E01F0916F017F
:1015C000E689D7015696EC938091B6028E1710F4F7
:1015D000E093B6027E9EF0011124EE56FD4F01808D
:1015E000F281E02DD7011596FC93EE931497848138
:1015F000958117969C938E931697A481B581139627
:10160000DC92CE921297D582C482D7015696EC9185
:101610005697E79DF0011124EE56FD4F1B96FC9363
:10162000EE931A9780818F5F8083DD24D3940F908F
:101630000FBE6C817D81C5010E948705C8010E9493
:101640003F040E949406811102C00E94D60591E0D9
:10165000F2CEE0916E01F0916F018689F701868BE1
:10166000E4CFE0916E01F0916F01DD24D394D701B6
:1016700091969C9186899817D0F2D12CD8CFC80129
:101680000E943F040E949406E2CFC8010E943F04DA
:101690000E949406C8010E9434048823C1F2DD2010
:1016A00009F4FFCE0FB6F8940F92F80181898823D0
:1016B00009F47BC00688F789E02D908184E0891BBE
:1016C000D80114960D911C910115110509F401CF53
:1016D000F80191A1981708F4982FD80156968C918B
:1016E0005697981709F4F5CE92962C91929721303F
:1016F00009F0EFCE56969C9356971C962D913C91EF
:101700001D9737FD08C024E030E0291B31091D96E4
:101710003C932E931C97B9E08B9FC00111248E56E9
:101720009D4FF801228533852817390709F0D1CE5E
:101730007801F2E0EF0EF11CC7010E948104F8016C
:10174000A6898091B6028A1710F4A093B60289E0A8
:101750008A9FD0011124AE56BD4F11960D90BC91B9
:10176000A02DF801B583A48314962D913C91159773
:10177000378326831496ED91FC911597F382E282CC
:101780001596FC92EE921497D8015696EC915697C6
:10179000E89FF0011124EE56FD4F1B96FC93EE934B
:1017A0001A9780818F5F808394CE80E089CF0F92DB
:1017B0000FB6F8940F921F9211242F923F924F92DE
:1017C0005F926F927F928F929F92AF92BF92CF92D1
:1017D000DF92EF92FF920F931F932F933F934F93BC
:1017E0005F936F937F938F939F93AF93BF93CF93A9
:1017F000DF93EF93FF93A0916E01B0916F010DB64F
:101800000D920EB60D9213BE80918B028111F9C01C
:1018100080918F0290919002019690939002809314
:101820008F02009781F52091C3013091C40140914E
:10183000C5015091C6015093C4014093C301309338
:10184000C6012093C501209191022F5F2093910240
:10185000E091C301F091C4012081211107C02FEF55
:101860003FEF30937F0220937E020DC0E091C301D1
:10187000F091C4010580F681E02D20813181309303
:101880007F0220937E0220917E0230917F02821798
:10189000930710F420E0A1C020E039E0D32EE091BE
:1018A000C301F091C4013081311107C08FEF9FEF68
:1018B00090937F0280937E0290C0E091C301F091EB
:1018C000C4010580F681E02D0680F781E02D42817C
:1018D00053818417950728F450937F0240937E022A
:1018E0007CC0A285B3854481558166817781EA01F8
:1018F0007D836C8366817781EB015B834A83AF01D3
:101900004E5F5F4F11960D911C91129704171507AA
:1019100021F412967C936E931197138612863C9154
:1019200031503C93A489B5891097F9F06685778585
:1019300000891189EB011D830C8300891189E8015D
:101940007B836A831196ED90FC901297BF01645FD0
:101950007F4FE616F70621F412961C930E9311970B
:10196000158A148A3C9131503C93A6893091B60275
:101970003A1710F4A093B602DA9ED0011124AE56A5
:10198000BD4F11960D90BC91A02DB583A4831496E4
:101990006D917C9115977783668314966D917C91F8
:1019A0001597EB015B834A8315965C934E931497CE
:1019B00046894D9DD0011124AE56BD4FB387A287F5
:1019C0003C913F5F3C93E0916E01F0916F0136894D
:1019D000431708F464CF21E062CFE0916E01F091EB
:1019E0006F01E689D9E0ED9FF0011124EE56FD4F1D
:1019F0008081823008F021E08091A50181110EC024
:101A00000AC08091A3019091A40101969093A40132
:101A10008093A3016AC0222309F467C080918B02DE
:101A2000882321F081E08093A5015FC01092A50179
:101A3000A0916E01B0916F01E0916E01F0916F0184
:101A40002D913C918789908D82179307A8F0809102
:101A50006E0190916F0180916E0190916F01259AB6
:101A60002D9A2FEF87EA91E6215080409040E1F7D0
:101A700000C000001D9AF5CF2091B60289E001C098
:101A80002150422F50E0849FF001859FF00D1124DA
:101A9000EE56FD4F9081992399F3A181B281129660
:101AA0000D90BC91A02DB283A183289FC001112469
:101AB0008B569D4FA817B90729F412968D919C91CA
:101AC0009283818389E0849FF001859FF00D11242A
:101AD000EE56FD4F0180F281E02D86819781909333
:101AE0006F0180936E012093B602A0916E01B091B8
:101AF0006F01CD91CDBFDD91DEBFFF91EF91DF9101
:101B0000CF91BF91AF919F918F917F916F915F9195
:101B10004F913F912F911F910F91FF90EF90DF9088
:101B2000CF90BF90AF909F908F907F906F905F907D
:101B30004F903F902F901F900F900FBE0F900895E1
:101B4000CF93DF93009751F0EC010E942E04CE0159
:101B50000E94F212DF91CF910C949406DF91CF9105
:101B60000895CF93DF93CDB7DEB72A970FB6F894D9
:101B7000DEBF0FBECDBFE0916802F0916902108117
:101B8000F12CE12C112329F00580F681E02DE08075
:101B9000F1800E942E040E9424046C018091C701F0
:101BA0009091C801C816D90608F07BC00E94AE0902
:101BB000D092C801C092C7010E94940600918D0284
:101BC00010918E021A86198680E06801B1E1CB0E71
:101BD000D11C0FB6F8940F92F801F28CFF2009F493
:101BE00041C1448D4423C1F050E086819781840F28
:101BF000951F97838683248135818217930720F070
:101C00008081918197838683D80116966D917C910E
:101C1000CE0101960E94A313FA94F801F28E8085FA
:101C2000882339F0C80108960E947F0381110E9421
:101C3000D6050F900FBED980D7FCC0CF0C811D8177
:101C4000F80182859385892B21F0C80102960E94B4
:101C500081040E9424047C018091C7019091C801F5
:101C6000E816F90610F40E94AE09F092C801E0925D
:101C7000C701F9E0FD1508F4A1CFED2DDD0CFF0B38
:101C8000E95BF14FD80152968C910C949D13F50E9F
:101C9000F50EF50E2D0F180F270FF50EF50E2D0F63
:101CA000180FD092C801C092C701112399F1CE1428
:101CB000DF04B8F10E949406E0916802F091690295
:101CC0000580F681E02D06811781C80102960E94E9
:101CD0008104D80152968C91529782FF17C01C96AE
:101CE0006D917C916E0D7F1D9701A601C8010E9428
:101CF000DB04882321F0B701C8010E948709D801BD
:101D00005096ED91FC91C801099558CF8E7FF8014E
:101D1000828BF5CFE0916602F0916702808161E0ED
:101D2000811160E000918D0210918E020FB6F8943F
:101D30000F92F801858D8F3F09F4158ED8015E96BC
:101D40008C915E978F3F11F45E961C920F900FBEA0
:101D5000F801828D81113FC00288F389E02DA091A6
:101D60006E01B0916F011F96FC93EE931E97A091A8
:101D70006E01B0916F018481958151969C938E93F1
:101D8000509780916E0190916F01A481B5810C965E
:101D900013969C938E93129780916E0190916F0190
:101DA0000C9695838483E0916E01F0916F01C801D8
:101DB0004196958B848BD80151968C9151978F5F6A
:101DC00051968C93C7018C199D09662311F08FEFF2
:101DD0009FEF0E940505C8010E943F040E949406DF
:101DE0008111ECCE0E94D605E9CE8160F801828B8C
:101DF000CA80DB80648575856C0D7D1D9601A70109
:101E0000C8010E94DB04882309F4D8CED80150967B
:101E1000ED91FC91C8010995F801828982FFCECE2F
:101E2000648575856C0D7D1DC8010E948709C6CE2D
:101E30008160F801828B6A817B81758764876E0D72
:101E40007F1D9701A701C8010E94DB04B7CE81FD69
:101E500004C0C8010E94A00DB1CE8E7FD801529659
:101E60008C93ACCE29853A85232B19F40F900FBEA5
:101E700082CE811109C0809191028E8380918F0260
:101E80009091900298878F830F900FBE0E942E042E
:101E90000FB6F8940F92D8015D968C915D978F3FA5
:101EA00011F45D961C92F801868D8F3F09F4168E11
:101EB0000F900FBEBE01675F7F4FCE0106960E9456
:101EC0004C0381111BC0C8010E943404882381F097
:101ED00069857A85C6010E948705C8010E943F0472
:101EE0000E949406811102C00E94D60581E071CE45
:101EF000C8010E943F040E949406F8CFC8010E94C6
:101F00003F040E949406C8010E943404882371F3A0
:101F100032CE00E010E08091AF0181110CC08091C1
:101F20009202823010F00E94D6050115110599F336
:101F30000E94D300F0CF0FB6F8940F92E091B60153
:101F4000F091B701C681D781CE0102960E9481042B
:101F50008091B00181508093B0018091AF01815098
:101F60008093AF010F900FBE8F89988D0E94A00DB6
:101F7000CE010E94A00DCFCFCF93DF93EC010E9442
:101F80002E04CE010E945612EC010E949406209766
:101F900069F4259A2D9A2FEF80E792E02150804036
:101FA0009040E1F700C000001D9AF5CFCE01DF910F
:101FB000CF910895CF93DF938FE190E00E94BC0F03
:101FC000EC01009791F09983888381E08B8F1C8EC0
:101FD000CE010E94A6051D821C82198218821E82D3
:101FE00070E060E0CE010E945C08CE01DF91CF91ED
:101FF00008955F926F927F928F929F92AF92BF925D
:10200000CF92DF92EF92FF920F931F93CF93DF93C4
:10201000782E892E562E672E6A01922E132FCA0112
:102020000E94BC0F5C01892B09F4EFC088E290E0AC
:102030000E94BC0FEC01892B09F4E4C0B88EAF8A72
:10204000A60165EA70E0C5010E94AC1381E0C81AE0
:10205000D108EF89F88DEC0DFD1D652D762DCE0193
:1020600049969B01285F3F4FDB014D91BD01DC018B
:102070004D93CD01AB0141505109DA014C914423FC
:1020800019F06217730781F718A20E8B09A31AA221
:102090001B861A861D8A1C8AD987C88784E090E02F
:1020A000801B91099D878C87DB8BCA8B84E09E0106
:1020B0002D5D3F4FD9011D928A95E9F71FA27082CD
:1020C000DF0111978C9211971C92119780E88C93E5
:1020D00011971C9257979C9211971C93B397F98371
:1020E000E883F701D183C0830FB6F8940F928091F3
:1020F000B0018F5F8093B00180916E0190916F016C
:10210000892B09F093C0D0936F01C0936E01809129
:10211000B001813081F582E992E00E9498058BE957
:1021200092E00E94980584EA92E00E9498058DEA68
:1021300092E00E94980589E991E00E94980580E963
:1021400091E00E94980586EA91E00E94980581EB53
:1021500091E00E9498058AEB91E00E94980589E938
:1021600091E09093C4018093C30180E991E0909342
:10217000C6018093C5018091A2018F5F8093A20167
:10218000AE898091B6028A1710F4A093B60229E0B6
:102190002A9FD0011124AE56BD4F11960D90BC91CF
:1021A000A02DBD83AC8314968D919C9115979F8330
:1021B0008E831496ED91FC911597CE010296938330
:1021C000828315969C938E931497EE89E29FF0017B
:1021D0001124EE56FD4FFB87EA8780818F5F808355
:1021E0000F900FBE80918C02882351F0E0916E0118
:1021F000F0916F0196898E89981710F40E94D60588
:1022000081E004C0C5010E94A00D8FEFDF91CF9146
:102210001F910F91FF90EF90DF90CF90BF90AF9004
:102220009F908F907F906F905F90089580918C0227
:102230008111A1CFE0916E01F0916F0196898E8995
:10224000891708F498CFD0936F01C0936E0193CF94
:102250000E94D70B1895789484B5826084BD84B5AC
:10226000816084BD85B5826085BD85B5816085BD91
:1022700080916E00816080936E0010928100809149
:1022800081008260809381008091810081608093D1
:102290008100809180008160809380008091B100F6
:1022A00084608093B1008091B00081608093B00021
:1022B00080917A00846080937A0080917A008260B5
:1022C00080937A0080917A00816080937A00809177
:1022D0007A00806880937A001092C10020910501F5
:1022E000309106018FEF98E0821B930B90930201CF
:1022F000809301010E947F0190E8E92E92E0F92E7F
:1023000000E030E020E040EC50E060E671E089E879
:102310009FE00E94F90F813009F090C00FB6F89449
:102320000F9280918D0290918E02892B49F583E75F
:1023300092E00E9498058AE692E00E94980583E761
:1023400092E090936902809368028AE692E090930B
:1023500067028093660281E590E00E94BC0FEC0169
:10236000009751F04F96998388838AE08B8F85E0A0
:102370008C8FCE010E94A605D0938E02C0938D0251
:102380000F900FBE80918D0290918E02892B09F4DF
:1023900055C08CE7E82E82E0F82E03E030E020E024
:1023A00045E550E065E671E081EB9DE00E94F90FA4
:1023B000813009F043C0F8942FEF3FEF30937F0254
:1023C00020937E0280938C021092900210928F02D2
:1023D000A89588E190EC0FB6F894A89580936000DA
:1023E0000FBE90936000A0916E01B0916F01CD91EE
:1023F000CDBFDD91DEBFFF91EF91DF91CF91BF9116
:10240000AF919F918F917F916F915F914F913F918C
:102410002F911F910F91FF90EF90DF90CF90BF9081
:10242000AF909F908F907F906F905F904F903F9074
:102430002F901F900F900FBE0F9008958091000174
:102440000E947F01C0E0D0E02097F1F30E94D3000A
:10245000FBCFE9ECF1E01382128288EE93E0A0E07A
:10246000B0E084839583A683B7838BE091E091836A
:10247000808385EC90E09587848784EC90E0978753
:10248000868780EC90E0918B808B81EC90E0938B41
:10249000828B82EC90E0958B848B86EC90E0978B1E
:1024A000868B118E128E138E148E08950F931F93A8
:1024B000CF93DF938230910510F482E090E0E091B9
:1024C000B902F091BA0230E020E0B0E0A0E030972D
:1024D00099F42115310509F44AC0281B390B243021
:1024E0003105D8F58A819B816115710589F1FB0160
:1024F00093838283FE0111C0408151810281138147
:1025000048175907E0F04817590799F4109761F0F8
:1025100012960C93129713961C933296CF01DF916B
:10252000CF911F910F9108950093B9021093BA02B1
:10253000F4CF2115310551F04217530738F0A901A6
:10254000DB019A01BD01DF01F801C1CFEF01F9CF35
:102550009093BA028093B902CDCFFE01E20FF31F30
:10256000819391932250310939832883D7CF2091C9
:10257000B7023091B802232B41F42091030130912E
:1025800004013093B8022093B702209101013091E9
:1025900002012115310541F42DB73EB740910501E7
:1025A00050910601241B350BE091B702F091B8025F
:1025B000E217F307A0F42E1B3F0B2817390778F01A
:1025C000AC014E5F5F4F2417350748F04E0F5F1F79
:1025D0005093B8024093B702819391939FCFF0E05C
:1025E000E0E09CCFCF93DF930097E9F0FC013297B6
:1025F00013821282A091B902B091BA02ED0130E0CB
:1026000020E01097A1F420813181820F931F209147
:10261000B7023091B8022817390709F061C0F0936A
:10262000B802E093B702DF91CF910895EA01CE1787
:10263000DF07E8F54A815B819E0141155105B1F73D
:10264000E901FB83EA8349915991C40FD51FEC1727
:10265000FD0761F4808191810296840F951FE90145
:1026600099838883828193819B838A83F0E0E0E071
:1026700012968D919C9113970097B9F52D913C91ED
:102680001197CD010296820F931F2091B7023091CE
:10269000B8022817390739F6309751F51092BA0267
:1026A0001092B902B093B802A093B702BCCFD38303
:1026B000C28340815181840F951FC817D90761F4E7
:1026C0004E5F5F4F88819981480F591F5183408326
:1026D0008A819B81938382832115310509F0B0CFD4
:1026E000F093BA02E093B9029ECFFD01DC01C0CFA6
:1026F00013821282D7CFA1E21A2EAA1BBB1BFD01A7
:102700000DC0AA1FBB1FEE1FFF1FA217B307E407D0
:10271000F50720F0A21BB30BE40BF50B661F771F28
:10272000881F991F1A9469F7609570958095909508
:102730009B01AC01BD01CF010895EE0FFF1F059075
:10274000F491E02D0994FB01DC0102C001900D928F
:1027500041505040D8F70895DC0101C06D934150BD
:0A2760005040E0F70895F894FFCF11
:10276A00030000BB0280000000000002015F008C31
:10277A00004F01BD009B00AF0053656E736F72205E
:10278A0050726F63657373696E67207461736B004F
:10279A004C656674204D6F746F7220436F6E74724D
:1027AA006F6C6C6572005269676874204D6F746F44
:1027BA007220436F6E74726F6C6C6572000D0A0042
:0E27CA0049444C4500546D7220537663000064
:00000001FF
